{
  "contractName": "FateSmartContractDataStructure",
  "abi": [
    {
      "constant": false,
      "inputs": [
        {
          "name": "_pause",
          "type": "bool"
        }
      ],
      "name": "setPause",
      "outputs": [],
      "payable": false,
      "stateMutability": "nonpayable",
      "type": "function"
    },
    {
      "constant": true,
      "inputs": [
        {
          "name": "",
          "type": "address"
        }
      ],
      "name": "players",
      "outputs": [
        {
          "name": "tokenQuartzAmount",
          "type": "uint256"
        }
      ],
      "payable": false,
      "stateMutability": "view",
      "type": "function"
    },
    {
      "constant": true,
      "inputs": [
        {
          "name": "playerAddress",
          "type": "address"
        }
      ],
      "name": "getTokenQuartzAmount",
      "outputs": [
        {
          "name": "",
          "type": "uint256"
        }
      ],
      "payable": false,
      "stateMutability": "view",
      "type": "function"
    },
    {
      "constant": false,
      "inputs": [
        {
          "name": "playerAddress",
          "type": "address"
        },
        {
          "name": "amount",
          "type": "uint256"
        }
      ],
      "name": "addTokenQuartzAmount",
      "outputs": [],
      "payable": false,
      "stateMutability": "nonpayable",
      "type": "function"
    },
    {
      "constant": false,
      "inputs": [],
      "name": "buyTokenQuartz",
      "outputs": [],
      "payable": true,
      "stateMutability": "payable",
      "type": "function"
    }
  ],
  "bytecode": "0x6080604052336000806101000a81548173ffffffffffffffffffffffffffffffffffffffff021916908373ffffffffffffffffffffffffffffffffffffffff16021790555060008060146101000a81548160ff0219169083151502179055506103e88061006d6000396000f30060806040526004361061006d576000357c0100000000000000000000000000000000000000000000000000000000900463ffffffff168063bedb86fb14610072578063c978e5ee146100a1578063cb526370146100ab578063d9cd12cf146100f8578063e2eb41ff1461014f575b600080fd5b34801561007e57600080fd5b5061009f6004803603810190808035151590602001909291905050506101a6565b005b6100a961021e565b005b3480156100b757600080fd5b506100f6600480360381019080803573ffffffffffffffffffffffffffffffffffffffff16906020019092919080359060200190929190505050610287565b005b34801561010457600080fd5b50610139600480360381019080803573ffffffffffffffffffffffffffffffffffffffff169060200190929190505050610352565b6040518082815260200191505060405180910390f35b34801561015b57600080fd5b50610190600480360381019080803573ffffffffffffffffffffffffffffffffffffffff16906020019092919050505061039e565b6040518082815260200191505060405180910390f35b6000809054906101000a900473ffffffffffffffffffffffffffffffffffffffff1673ffffffffffffffffffffffffffffffffffffffff163373ffffffffffffffffffffffffffffffffffffffff1614151561020157600080fd5b80600060146101000a81548160ff02191690831515021790555050565b670de0b6b3a76400003414151561023457600080fd5b60a7600160003373ffffffffffffffffffffffffffffffffffffffff1673ffffffffffffffffffffffffffffffffffffffff16815260200190815260200160002060000160008282540192505081905550565b6000809054906101000a900473ffffffffffffffffffffffffffffffffffffffff1673ffffffffffffffffffffffffffffffffffffffff163373ffffffffffffffffffffffffffffffffffffffff161415156102e257600080fd5b600060149054906101000a900460ff161515156102fe57600080fd5b80600160008473ffffffffffffffffffffffffffffffffffffffff1673ffffffffffffffffffffffffffffffffffffffff168152602001908152602001600020600001600082825401925050819055505050565b6000600160008373ffffffffffffffffffffffffffffffffffffffff1673ffffffffffffffffffffffffffffffffffffffff168152602001908152602001600020600001549050919050565b600160205280600052604060002060009150905080600001549050815600a165627a7a723058202e823b61d288a89bd8851b2edc770052e25932575066cfef7dd25128eea3f3a40029",
  "source": "pragma solidity ^0.4.23;\n\n\nimport \"./FateSmartContractAccessControl.sol\";\n\n\ncontract FateSmartContractDataStructure is FateSmartContractAccessControl {\n\n    struct Player {\n        uint256 tokenQuartzAmount;\n        uint256[] servant;\n        uint256[] craftEssence;\n    }\n\n    mapping(address => Player) public players;\n\n    function getTokenQuartzAmount(address playerAddress) public view returns (uint256) {\n        return players[playerAddress].tokenQuartzAmount;\n    }\n\n    function addTokenQuartzAmount(address playerAddress, uint256 amount) public onlyCreator notPause {\n        players[playerAddress].tokenQuartzAmount += amount;\n    }\n\n    function buyTokenQuartz() public payable {\n        require(msg.value == 1 ether);\n        players[msg.sender].tokenQuartzAmount += 167; // TODO: overflow check ?\n    }\n}\n",
  "sourcePath": "E:\\Projects\\FateSmartContract\\FateSmartContract\\contracts\\FateSmartContractDataStructure.sol",
  "compiler": {
    "name": "solc",
    "version": "0.4.24+commit.e67f0147.Emscripten.clang"
  },
  "schemaVersion": "2.0.0",
  "updatedAt": "2018-06-18T10:30:58.613Z"
}