{
  "contractName": "FateSmartContractDataStructure",
  "abi": [
    {
      "constant": true,
      "inputs": [],
      "name": "getCreator",
      "outputs": [
        {
          "name": "",
          "type": "address"
        }
      ],
      "payable": false,
      "stateMutability": "view",
      "type": "function"
    },
    {
      "constant": false,
      "inputs": [
        {
          "name": "_amountInWei",
          "type": "uint256"
        }
      ],
      "name": "sendEthToCreator",
      "outputs": [],
      "payable": false,
      "stateMutability": "nonpayable",
      "type": "function"
    },
    {
      "constant": false,
      "inputs": [
        {
          "name": "_pause",
          "type": "bool"
        }
      ],
      "name": "setPause",
      "outputs": [],
      "payable": false,
      "stateMutability": "nonpayable",
      "type": "function"
    },
    {
      "constant": true,
      "inputs": [
        {
          "name": "",
          "type": "address"
        }
      ],
      "name": "players",
      "outputs": [
        {
          "name": "tokenQuartzAmount",
          "type": "uint256"
        }
      ],
      "payable": false,
      "stateMutability": "view",
      "type": "function"
    },
    {
      "inputs": [],
      "payable": false,
      "stateMutability": "nonpayable",
      "type": "constructor"
    },
    {
      "anonymous": false,
      "inputs": [
        {
          "indexed": true,
          "name": "playerAddress",
          "type": "address"
        },
        {
          "indexed": false,
          "name": "amount",
          "type": "uint256"
        }
      ],
      "name": "BuyTokenQuartz",
      "type": "event"
    },
    {
      "constant": true,
      "inputs": [
        {
          "name": "playerAddress",
          "type": "address"
        }
      ],
      "name": "getTokenQuartzAmount",
      "outputs": [
        {
          "name": "",
          "type": "uint256"
        }
      ],
      "payable": false,
      "stateMutability": "view",
      "type": "function"
    },
    {
      "constant": true,
      "inputs": [
        {
          "name": "playerAddress",
          "type": "address"
        }
      ],
      "name": "getServant",
      "outputs": [
        {
          "name": "",
          "type": "uint256[]"
        }
      ],
      "payable": false,
      "stateMutability": "view",
      "type": "function"
    },
    {
      "constant": true,
      "inputs": [
        {
          "name": "playerAddress",
          "type": "address"
        }
      ],
      "name": "getCraftEssence",
      "outputs": [
        {
          "name": "",
          "type": "uint256[]"
        }
      ],
      "payable": false,
      "stateMutability": "view",
      "type": "function"
    },
    {
      "constant": false,
      "inputs": [
        {
          "name": "playerAddress",
          "type": "address"
        },
        {
          "name": "amount",
          "type": "uint256"
        }
      ],
      "name": "addTokenQuartzAmount",
      "outputs": [],
      "payable": false,
      "stateMutability": "nonpayable",
      "type": "function"
    },
    {
      "constant": false,
      "inputs": [
        {
          "name": "_price",
          "type": "uint256"
        }
      ],
      "name": "setTokenQuartzPriceInWei",
      "outputs": [],
      "payable": false,
      "stateMutability": "nonpayable",
      "type": "function"
    },
    {
      "constant": true,
      "inputs": [],
      "name": "getTokenQuartzPriceInWei",
      "outputs": [
        {
          "name": "",
          "type": "uint256"
        }
      ],
      "payable": false,
      "stateMutability": "view",
      "type": "function"
    },
    {
      "constant": false,
      "inputs": [
        {
          "name": "_amount",
          "type": "uint256"
        }
      ],
      "name": "setTokenQuartzBuyAmount",
      "outputs": [],
      "payable": false,
      "stateMutability": "nonpayable",
      "type": "function"
    },
    {
      "constant": true,
      "inputs": [],
      "name": "getTokenQuartzBuyAmount",
      "outputs": [
        {
          "name": "",
          "type": "uint256"
        }
      ],
      "payable": false,
      "stateMutability": "view",
      "type": "function"
    },
    {
      "constant": false,
      "inputs": [],
      "name": "buyTokenQuartz",
      "outputs": [],
      "payable": true,
      "stateMutability": "payable",
      "type": "function"
    }
  ],
  "bytecode": "0x608060405234801561001057600080fd5b50336000806101000a81548173ffffffffffffffffffffffffffffffffffffffff021916908373ffffffffffffffffffffffffffffffffffffffff16021790555060008060146101000a81548160ff02191690831515021790555067013fbe85edc9000060018190555060a7600281905550610a45806100916000396000f3006080604052600436106100c5576000357c0100000000000000000000000000000000000000000000000000000000900463ffffffff1680630ee2cb10146100ca5780632c6d2d6b146101215780633e7883851461014e5780633ef5ce0f146101e657806358ba4431146102115780637350eda71461023e578063ac6082e314610269578063bedb86fb14610301578063c978e5ee14610330578063cb5263701461033a578063d9cd12cf14610387578063de8aa663146103de578063e2eb41ff1461040b575b600080fd5b3480156100d657600080fd5b506100df610462565b604051808273ffffffffffffffffffffffffffffffffffffffff1673ffffffffffffffffffffffffffffffffffffffff16815260200191505060405180910390f35b34801561012d57600080fd5b5061014c6004803603810190808035906020019092919050505061048b565b005b34801561015a57600080fd5b5061018f600480360381019080803573ffffffffffffffffffffffffffffffffffffffff169060200190929190505050610551565b6040518080602001828103825283818151815260200191508051906020019060200280838360005b838110156101d25780820151818401526020810190506101b7565b505050509050019250505060405180910390f35b3480156101f257600080fd5b506101fb6105eb565b6040518082815260200191505060405180910390f35b34801561021d57600080fd5b5061023c600480360381019080803590602001909291905050506105f5565b005b34801561024a57600080fd5b5061025361065a565b6040518082815260200191505060405180910390f35b34801561027557600080fd5b506102aa600480360381019080803573ffffffffffffffffffffffffffffffffffffffff169060200190929190505050610664565b6040518080602001828103825283818151815260200191508051906020019060200280838360005b838110156102ed5780820151818401526020810190506102d2565b505050509050019250505060405180910390f35b34801561030d57600080fd5b5061032e6004803603810190808035151590602001909291905050506106fe565b005b610338610776565b005b34801561034657600080fd5b50610385600480360381019080803573ffffffffffffffffffffffffffffffffffffffff1690602001909291908035906020019092919050505061087f565b005b34801561039357600080fd5b506103c8600480360381019080803573ffffffffffffffffffffffffffffffffffffffff16906020019092919050505061094a565b6040518082815260200191505060405180910390f35b3480156103ea57600080fd5b5061040960048036038101908080359060200190929190505050610996565b005b34801561041757600080fd5b5061044c600480360381019080803573ffffffffffffffffffffffffffffffffffffffff1690602001909291905050506109fb565b6040518082815260200191505060405180910390f35b60008060009054906101000a900473ffffffffffffffffffffffffffffffffffffffff16905090565b6000809054906101000a900473ffffffffffffffffffffffffffffffffffffffff1673ffffffffffffffffffffffffffffffffffffffff163373ffffffffffffffffffffffffffffffffffffffff161415156104e657600080fd5b6000809054906101000a900473ffffffffffffffffffffffffffffffffffffffff1673ffffffffffffffffffffffffffffffffffffffff166108fc829081150290604051600060405180830381858888f1935050505015801561054d573d6000803e3d6000fd5b5050565b6060600360008373ffffffffffffffffffffffffffffffffffffffff1673ffffffffffffffffffffffffffffffffffffffff1681526020019081526020016000206001018054806020026020016040519081016040528092919081815260200182805480156105df57602002820191906000526020600020905b8154815260200190600101908083116105cb575b50505050509050919050565b6000600254905090565b6000809054906101000a900473ffffffffffffffffffffffffffffffffffffffff1673ffffffffffffffffffffffffffffffffffffffff163373ffffffffffffffffffffffffffffffffffffffff1614151561065057600080fd5b8060018190555050565b6000600154905090565b6060600360008373ffffffffffffffffffffffffffffffffffffffff1673ffffffffffffffffffffffffffffffffffffffff1681526020019081526020016000206002018054806020026020016040519081016040528092919081815260200182805480156106f257602002820191906000526020600020905b8154815260200190600101908083116106de575b50505050509050919050565b6000809054906101000a900473ffffffffffffffffffffffffffffffffffffffff1673ffffffffffffffffffffffffffffffffffffffff163373ffffffffffffffffffffffffffffffffffffffff1614151561075957600080fd5b80600060146101000a81548160ff02191690831515021790555050565b6001543414151561078657600080fd5b6000600254600360003373ffffffffffffffffffffffffffffffffffffffff1673ffffffffffffffffffffffffffffffffffffffff16815260200190815260200160002060000154011115156107db57600080fd5b600254600360003373ffffffffffffffffffffffffffffffffffffffff1673ffffffffffffffffffffffffffffffffffffffff168152602001908152602001600020600001600082825401925050819055503373ffffffffffffffffffffffffffffffffffffffff167f720aecb4faadeee42e3bc66881f8289e230ed1d2108d60c584fe3b0faebf59d46002546040518082815260200191505060405180910390a2565b6000809054906101000a900473ffffffffffffffffffffffffffffffffffffffff1673ffffffffffffffffffffffffffffffffffffffff163373ffffffffffffffffffffffffffffffffffffffff161415156108da57600080fd5b600060149054906101000a900460ff161515156108f657600080fd5b80600360008473ffffffffffffffffffffffffffffffffffffffff1673ffffffffffffffffffffffffffffffffffffffff168152602001908152602001600020600001600082825401925050819055505050565b6000600360008373ffffffffffffffffffffffffffffffffffffffff1673ffffffffffffffffffffffffffffffffffffffff168152602001908152602001600020600001549050919050565b6000809054906101000a900473ffffffffffffffffffffffffffffffffffffffff1673ffffffffffffffffffffffffffffffffffffffff163373ffffffffffffffffffffffffffffffffffffffff161415156109f157600080fd5b8060028190555050565b600360205280600052604060002060009150905080600001549050815600a165627a7a7230582039bc1c757d4f02db24a870c1907fd4f69e298c1ef91bd483f34891beb5e6998c0029",
  "source": "pragma solidity ^0.4.23;\n\n\nimport \"./FateSmartContractAccessControl.sol\";\n\n\ncontract FateSmartContractDataStructure is FateSmartContractAccessControl {\n\n    uint256 private tokenQuartzPriceInWei;\n    uint256 private tokenQuartzBuyAmount;\n\n    struct Player {\n        uint256 tokenQuartzAmount;\n        uint256[] servant;\n        uint256[] craftEssence;\n    }\n\n    mapping(address => Player) public players;\n\n    event BuyTokenQuartz(address indexed playerAddress, uint256 amount);\n\n    constructor() public {\n        tokenQuartzPriceInWei = 0.09 ether;\n        tokenQuartzBuyAmount = 167;\n    }\n\n    function getTokenQuartzAmount(address playerAddress) public view returns (uint256) {\n        return players[playerAddress].tokenQuartzAmount;\n    }\n\n    function getServant(address playerAddress) public view returns (uint256[]) {\n        return players[playerAddress].servant;\n    }\n\n    function getCraftEssence(address playerAddress) public view returns (uint256[]) {\n        return players[playerAddress].craftEssence;\n    }\n\n    function addTokenQuartzAmount(address playerAddress, uint256 amount) public onlyCreator notPause {\n        players[playerAddress].tokenQuartzAmount += amount;\n    }\n\n    function setTokenQuartzPriceInWei(uint256 _price) public onlyCreator {\n        tokenQuartzPriceInWei = _price;\n    }\n\n    function getTokenQuartzPriceInWei() public view returns (uint256) {\n        return tokenQuartzPriceInWei;\n    }\n\n    function setTokenQuartzBuyAmount(uint256 _amount) public onlyCreator {\n        tokenQuartzBuyAmount = _amount;\n    }\n\n    function getTokenQuartzBuyAmount() public view returns (uint256) {\n        return tokenQuartzBuyAmount;\n    }\n\n    function buyTokenQuartz() public payable {\n        require(msg.value == tokenQuartzPriceInWei);\n        // overflow check\n        require(players[msg.sender].tokenQuartzAmount + tokenQuartzBuyAmount > 0);\n\n        players[msg.sender].tokenQuartzAmount += tokenQuartzBuyAmount;\n        emit BuyTokenQuartz(msg.sender, tokenQuartzBuyAmount);\n    }\n}\n",
  "sourcePath": "E:\\Projects\\FateSmartContract\\FateSmartContract\\contracts\\FateSmartContractDataStructure.sol",
  "compiler": {
    "name": "solc",
    "version": "0.4.24+commit.e67f0147.Emscripten.clang"
  },
  "schemaVersion": "2.0.0",
  "updatedAt": "2018-06-29T14:08:06.945Z"
}