{
  "contractName": "FateSmartContractDataStructure",
  "abi": [
    {
      "constant": true,
      "inputs": [],
      "name": "getCreator",
      "outputs": [
        {
          "name": "",
          "type": "address"
        }
      ],
      "payable": false,
      "stateMutability": "view",
      "type": "function"
    },
    {
      "constant": false,
      "inputs": [
        {
          "name": "_amountInWei",
          "type": "uint256"
        }
      ],
      "name": "sendEthToCreator",
      "outputs": [],
      "payable": false,
      "stateMutability": "nonpayable",
      "type": "function"
    },
    {
      "constant": false,
      "inputs": [
        {
          "name": "_pause",
          "type": "bool"
        }
      ],
      "name": "setPause",
      "outputs": [],
      "payable": false,
      "stateMutability": "nonpayable",
      "type": "function"
    },
    {
      "constant": true,
      "inputs": [
        {
          "name": "",
          "type": "address"
        }
      ],
      "name": "players",
      "outputs": [
        {
          "name": "tokenQuartzAmount",
          "type": "uint256"
        }
      ],
      "payable": false,
      "stateMutability": "view",
      "type": "function"
    },
    {
      "inputs": [],
      "payable": false,
      "stateMutability": "nonpayable",
      "type": "constructor"
    },
    {
      "anonymous": false,
      "inputs": [
        {
          "indexed": true,
          "name": "playerAddress",
          "type": "address"
        },
        {
          "indexed": false,
          "name": "amount",
          "type": "uint256"
        }
      ],
      "name": "BuyTokenQuartz",
      "type": "event"
    },
    {
      "constant": true,
      "inputs": [
        {
          "name": "playerAddress",
          "type": "address"
        }
      ],
      "name": "getServant",
      "outputs": [
        {
          "name": "",
          "type": "uint256[]"
        }
      ],
      "payable": false,
      "stateMutability": "view",
      "type": "function"
    },
    {
      "constant": true,
      "inputs": [
        {
          "name": "playerAddress",
          "type": "address"
        }
      ],
      "name": "getCraftEssence",
      "outputs": [
        {
          "name": "",
          "type": "uint256[]"
        }
      ],
      "payable": false,
      "stateMutability": "view",
      "type": "function"
    },
    {
      "constant": false,
      "inputs": [
        {
          "name": "playerAddress",
          "type": "address"
        },
        {
          "name": "amount",
          "type": "uint256"
        }
      ],
      "name": "addTokenQuartzAmount",
      "outputs": [],
      "payable": false,
      "stateMutability": "nonpayable",
      "type": "function"
    },
    {
      "constant": false,
      "inputs": [
        {
          "name": "_price",
          "type": "uint256"
        }
      ],
      "name": "setTokenQuartzPriceInWei",
      "outputs": [],
      "payable": false,
      "stateMutability": "nonpayable",
      "type": "function"
    },
    {
      "constant": true,
      "inputs": [],
      "name": "getTokenQuartzPriceInWei",
      "outputs": [
        {
          "name": "",
          "type": "uint256"
        }
      ],
      "payable": false,
      "stateMutability": "view",
      "type": "function"
    },
    {
      "constant": false,
      "inputs": [
        {
          "name": "_amount",
          "type": "uint256"
        }
      ],
      "name": "setTokenQuartzAmount",
      "outputs": [],
      "payable": false,
      "stateMutability": "nonpayable",
      "type": "function"
    },
    {
      "constant": true,
      "inputs": [],
      "name": "getTokenQuartzAmount",
      "outputs": [
        {
          "name": "",
          "type": "uint256"
        }
      ],
      "payable": false,
      "stateMutability": "view",
      "type": "function"
    },
    {
      "constant": true,
      "inputs": [
        {
          "name": "playerAddress",
          "type": "address"
        }
      ],
      "name": "getTokenQuartzAmount",
      "outputs": [
        {
          "name": "",
          "type": "uint256"
        }
      ],
      "payable": false,
      "stateMutability": "view",
      "type": "function"
    },
    {
      "constant": false,
      "inputs": [],
      "name": "buyTokenQuartz",
      "outputs": [],
      "payable": true,
      "stateMutability": "payable",
      "type": "function"
    }
  ],
  "bytecode": "0x608060405234801561001057600080fd5b50336000806101000a81548173ffffffffffffffffffffffffffffffffffffffff021916908373ffffffffffffffffffffffffffffffffffffffff16021790555060008060146101000a81548160ff02191690831515021790555067013fbe85edc9000060018190555060a7600281905550610a45806100916000396000f3006080604052600436106100c5576000357c0100000000000000000000000000000000000000000000000000000000900463ffffffff1680630ee2cb10146100ca578063199b4506146101215780632c6d2d6b1461014c5780633e7883851461017957806358ba44311461021157806362b789431461023e5780637350eda71461026b578063ac6082e314610296578063bedb86fb1461032e578063c978e5ee1461035d578063cb52637014610367578063d9cd12cf146103b4578063e2eb41ff1461040b575b600080fd5b3480156100d657600080fd5b506100df610462565b604051808273ffffffffffffffffffffffffffffffffffffffff1673ffffffffffffffffffffffffffffffffffffffff16815260200191505060405180910390f35b34801561012d57600080fd5b5061013661048b565b6040518082815260200191505060405180910390f35b34801561015857600080fd5b5061017760048036038101908080359060200190929190505050610495565b005b34801561018557600080fd5b506101ba600480360381019080803573ffffffffffffffffffffffffffffffffffffffff16906020019092919050505061055b565b6040518080602001828103825283818151815260200191508051906020019060200280838360005b838110156101fd5780820151818401526020810190506101e2565b505050509050019250505060405180910390f35b34801561021d57600080fd5b5061023c600480360381019080803590602001909291905050506105f5565b005b34801561024a57600080fd5b506102696004803603810190808035906020019092919050505061065a565b005b34801561027757600080fd5b506102806106bf565b6040518082815260200191505060405180910390f35b3480156102a257600080fd5b506102d7600480360381019080803573ffffffffffffffffffffffffffffffffffffffff1690602001909291905050506106c9565b6040518080602001828103825283818151815260200191508051906020019060200280838360005b8381101561031a5780820151818401526020810190506102ff565b505050509050019250505060405180910390f35b34801561033a57600080fd5b5061035b600480360381019080803515159060200190929190505050610763565b005b6103656107db565b005b34801561037357600080fd5b506103b2600480360381019080803573ffffffffffffffffffffffffffffffffffffffff169060200190929190803590602001909291905050506108e4565b005b3480156103c057600080fd5b506103f5600480360381019080803573ffffffffffffffffffffffffffffffffffffffff1690602001909291905050506109af565b6040518082815260200191505060405180910390f35b34801561041757600080fd5b5061044c600480360381019080803573ffffffffffffffffffffffffffffffffffffffff1690602001909291905050506109fb565b6040518082815260200191505060405180910390f35b60008060009054906101000a900473ffffffffffffffffffffffffffffffffffffffff16905090565b6000600254905090565b6000809054906101000a900473ffffffffffffffffffffffffffffffffffffffff1673ffffffffffffffffffffffffffffffffffffffff163373ffffffffffffffffffffffffffffffffffffffff161415156104f057600080fd5b6000809054906101000a900473ffffffffffffffffffffffffffffffffffffffff1673ffffffffffffffffffffffffffffffffffffffff166108fc829081150290604051600060405180830381858888f19350505050158015610557573d6000803e3d6000fd5b5050565b6060600360008373ffffffffffffffffffffffffffffffffffffffff1673ffffffffffffffffffffffffffffffffffffffff1681526020019081526020016000206001018054806020026020016040519081016040528092919081815260200182805480156105e957602002820191906000526020600020905b8154815260200190600101908083116105d5575b50505050509050919050565b6000809054906101000a900473ffffffffffffffffffffffffffffffffffffffff1673ffffffffffffffffffffffffffffffffffffffff163373ffffffffffffffffffffffffffffffffffffffff1614151561065057600080fd5b8060018190555050565b6000809054906101000a900473ffffffffffffffffffffffffffffffffffffffff1673ffffffffffffffffffffffffffffffffffffffff163373ffffffffffffffffffffffffffffffffffffffff161415156106b557600080fd5b8060028190555050565b6000600154905090565b6060600360008373ffffffffffffffffffffffffffffffffffffffff1673ffffffffffffffffffffffffffffffffffffffff16815260200190815260200160002060020180548060200260200160405190810160405280929190818152602001828054801561075757602002820191906000526020600020905b815481526020019060010190808311610743575b50505050509050919050565b6000809054906101000a900473ffffffffffffffffffffffffffffffffffffffff1673ffffffffffffffffffffffffffffffffffffffff163373ffffffffffffffffffffffffffffffffffffffff161415156107be57600080fd5b80600060146101000a81548160ff02191690831515021790555050565b600154341415156107eb57600080fd5b6000600254600360003373ffffffffffffffffffffffffffffffffffffffff1673ffffffffffffffffffffffffffffffffffffffff168152602001908152602001600020600001540111151561084057600080fd5b600254600360003373ffffffffffffffffffffffffffffffffffffffff1673ffffffffffffffffffffffffffffffffffffffff168152602001908152602001600020600001600082825401925050819055503373ffffffffffffffffffffffffffffffffffffffff167f720aecb4faadeee42e3bc66881f8289e230ed1d2108d60c584fe3b0faebf59d46002546040518082815260200191505060405180910390a2565b6000809054906101000a900473ffffffffffffffffffffffffffffffffffffffff1673ffffffffffffffffffffffffffffffffffffffff163373ffffffffffffffffffffffffffffffffffffffff1614151561093f57600080fd5b600060149054906101000a900460ff1615151561095b57600080fd5b80600360008473ffffffffffffffffffffffffffffffffffffffff1673ffffffffffffffffffffffffffffffffffffffff168152602001908152602001600020600001600082825401925050819055505050565b6000600360008373ffffffffffffffffffffffffffffffffffffffff1673ffffffffffffffffffffffffffffffffffffffff168152602001908152602001600020600001549050919050565b600360205280600052604060002060009150905080600001549050815600a165627a7a7230582051d188a1f4ca590f601d8e6edb73c4a07ed342ee6f3fa0caca4d7030cb5c9c100029",
  "source": "pragma solidity ^0.4.23;\n\n\nimport \"./FateSmartContractAccessControl.sol\";\n\n\ncontract FateSmartContractDataStructure is FateSmartContractAccessControl {\n\n    uint256 private tokenQuartzPriceInWei;\n    uint256 private tokenQuartzAmount;\n\n    struct Player {\n        uint256 tokenQuartzAmount;\n        uint256[] servant;\n        uint256[] craftEssence;\n    }\n\n    mapping(address => Player) public players;\n\n    event BuyTokenQuartz(address indexed playerAddress, uint256 amount);\n\n    constructor() public {\n        tokenQuartzPriceInWei = 0.09 ether;\n        tokenQuartzAmount = 167;\n    }\n\n    function getTokenQuartzAmount(address playerAddress) public view returns (uint256) {\n        return players[playerAddress].tokenQuartzAmount;\n    }\n\n    function getServant(address playerAddress) public view returns (uint256[]) {\n        return players[playerAddress].servant;\n    }\n\n    function getCraftEssence(address playerAddress) public view returns (uint256[]) {\n        return players[playerAddress].craftEssence;\n    }\n\n    function addTokenQuartzAmount(address playerAddress, uint256 amount) public onlyCreator notPause {\n        players[playerAddress].tokenQuartzAmount += amount;\n    }\n\n    function setTokenQuartzPriceInWei(uint256 _price) public onlyCreator {\n        tokenQuartzPriceInWei = _price;\n    }\n\n    function getTokenQuartzPriceInWei() public view returns (uint256) {\n        return tokenQuartzPriceInWei;\n    }\n\n    function setTokenQuartzAmount(uint256 _amount) public onlyCreator {\n        tokenQuartzAmount = _amount;\n    }\n\n    function getTokenQuartzAmount() public view returns (uint256) {\n        return tokenQuartzAmount;\n    }\n\n    function buyTokenQuartz() public payable {\n        require(msg.value == tokenQuartzPriceInWei);\n        // overflow check\n        require(players[msg.sender].tokenQuartzAmount + tokenQuartzAmount > 0);\n\n        players[msg.sender].tokenQuartzAmount += tokenQuartzAmount;\n        emit BuyTokenQuartz(msg.sender, tokenQuartzAmount);\n    }\n}\n",
  "sourcePath": "E:\\Projects\\FateSmartContract\\FateSmartContract\\contracts\\FateSmartContractDataStructure.sol",
  "compiler": {
    "name": "solc",
    "version": "0.4.24+commit.e67f0147.Emscripten.clang"
  },
  "schemaVersion": "2.0.0",
  "updatedAt": "2018-06-29T13:25:03.290Z"
}