{
  "contractName": "FateSmartContractAccessControl",
  "abi": [
    {
      "inputs": [],
      "payable": false,
      "stateMutability": "nonpayable",
      "type": "constructor"
    },
    {
      "constant": true,
      "inputs": [],
      "name": "getCreator",
      "outputs": [
        {
          "name": "",
          "type": "address"
        }
      ],
      "payable": false,
      "stateMutability": "view",
      "type": "function"
    },
    {
      "constant": false,
      "inputs": [
        {
          "name": "_pause",
          "type": "bool"
        }
      ],
      "name": "setPause",
      "outputs": [],
      "payable": false,
      "stateMutability": "nonpayable",
      "type": "function"
    }
  ],
  "bytecode": "0x608060405234801561001057600080fd5b50336000806101000a81548173ffffffffffffffffffffffffffffffffffffffff021916908373ffffffffffffffffffffffffffffffffffffffff16021790555060008060146101000a81548160ff0219169083151502179055506101a48061007a6000396000f30060806040526004361061004c576000357c0100000000000000000000000000000000000000000000000000000000900463ffffffff1680630ee2cb1014610051578063bedb86fb146100a8575b600080fd5b34801561005d57600080fd5b506100666100d7565b604051808273ffffffffffffffffffffffffffffffffffffffff1673ffffffffffffffffffffffffffffffffffffffff16815260200191505060405180910390f35b3480156100b457600080fd5b506100d5600480360381019080803515159060200190929190505050610100565b005b60008060009054906101000a900473ffffffffffffffffffffffffffffffffffffffff16905090565b6000809054906101000a900473ffffffffffffffffffffffffffffffffffffffff1673ffffffffffffffffffffffffffffffffffffffff163373ffffffffffffffffffffffffffffffffffffffff1614151561015b57600080fd5b80600060146101000a81548160ff021916908315150217905550505600a165627a7a72305820bcbfd328130287e7a92065faee918c3bb720383a8e6482a2c83202a77eadfee30029",
  "source": "pragma solidity ^0.4.23;\n\n\ncontract FateSmartContractAccessControl {\n\n    address private creator;\n\n    bool private pause;\n\n    modifier onlyCreator() {\n        require(msg.sender == creator);\n        _;\n    }\n\n    modifier notPause() {\n        require(!pause);\n        _;\n    }\n\n    constructor() public {\n        creator = msg.sender;\n        pause = false;\n    }\n\n    function getCreator() public view returns (address) {\n        return creator;\n    }\n\n    function setPause(bool _pause) public onlyCreator {\n        pause = _pause;\n    }\n}\n",
  "sourcePath": "E:\\Projects\\FateSmartContract\\FateSmartContract\\contracts\\FateSmartContractAccessControl.sol",
  "compiler": {
    "name": "solc",
    "version": "0.4.24+commit.e67f0147.Emscripten.clang"
  },
  "schemaVersion": "2.0.0",
  "updatedAt": "2018-06-26T12:18:42.863Z"
}