{
  "contractName": "FateSmartContractAccessControl",
  "abi": [
    {
      "inputs": [],
      "payable": false,
      "stateMutability": "nonpayable",
      "type": "constructor"
    },
    {
      "constant": false,
      "inputs": [
        {
          "name": "_pause",
          "type": "bool"
        }
      ],
      "name": "setPause",
      "outputs": [],
      "payable": false,
      "stateMutability": "nonpayable",
      "type": "function"
    }
  ],
  "bytecode": "0x608060405234801561001057600080fd5b50336000806101000a81548173ffffffffffffffffffffffffffffffffffffffff021916908373ffffffffffffffffffffffffffffffffffffffff16021790555060008060146101000a81548160ff0219169083151502179055506101138061007a6000396000f300608060405260043610603f576000357c0100000000000000000000000000000000000000000000000000000000900463ffffffff168063bedb86fb146044575b600080fd5b348015604f57600080fd5b50606e6004803603810190808035151590602001909291905050506070565b005b6000809054906101000a900473ffffffffffffffffffffffffffffffffffffffff1673ffffffffffffffffffffffffffffffffffffffff163373ffffffffffffffffffffffffffffffffffffffff1614151560ca57600080fd5b80600060146101000a81548160ff021916908315150217905550505600a165627a7a72305820d2b7530ce78b61a6871acf67a90f35d42b32ba3a56a25aadb38b3cc01dcd6fa20029",
  "source": "pragma solidity ^0.4.23;\n\n\ncontract FateSmartContractAccessControl {\n\n    address private creator;\n\n    bool private pause;\n\n    modifier onlyCreator() {\n        require(msg.sender == creator);\n        _;\n    }\n\n    modifier notPause() {\n        require(!pause);\n        _;\n    }\n\n    constructor() public {\n        creator = msg.sender;\n        pause = false;\n    }\n\n    function setPause(bool _pause) public onlyCreator {\n        pause = _pause;\n    }\n}\n",
  "sourcePath": "E:\\Projects\\FateSmartContract\\FateSmartContract\\contracts\\FateSmartContractAccessControl.sol",
  "compiler": {
    "name": "solc",
    "version": "0.4.24+commit.e67f0147.Emscripten.clang"
  },
  "schemaVersion": "2.0.0",
  "updatedAt": "2018-06-18T10:30:58.612Z"
}