{
  "contractName": "FateSmartContractSummon",
  "abi": [
    {
      "constant": true,
      "inputs": [],
      "name": "getCreator",
      "outputs": [
        {
          "name": "",
          "type": "address"
        }
      ],
      "payable": false,
      "stateMutability": "view",
      "type": "function"
    },
    {
      "constant": false,
      "inputs": [
        {
          "name": "_pause",
          "type": "bool"
        }
      ],
      "name": "setPause",
      "outputs": [],
      "payable": false,
      "stateMutability": "nonpayable",
      "type": "function"
    },
    {
      "constant": false,
      "inputs": [],
      "name": "buyTokenQuartz",
      "outputs": [],
      "payable": true,
      "stateMutability": "payable",
      "type": "function"
    },
    {
      "constant": false,
      "inputs": [
        {
          "name": "playerAddress",
          "type": "address"
        },
        {
          "name": "amount",
          "type": "uint256"
        }
      ],
      "name": "addTokenQuartzAmount",
      "outputs": [],
      "payable": false,
      "stateMutability": "nonpayable",
      "type": "function"
    },
    {
      "constant": true,
      "inputs": [
        {
          "name": "playerAddress",
          "type": "address"
        }
      ],
      "name": "getTokenQuartzAmount",
      "outputs": [
        {
          "name": "",
          "type": "uint256"
        }
      ],
      "payable": false,
      "stateMutability": "view",
      "type": "function"
    },
    {
      "constant": true,
      "inputs": [
        {
          "name": "",
          "type": "address"
        }
      ],
      "name": "players",
      "outputs": [
        {
          "name": "tokenQuartzAmount",
          "type": "uint256"
        }
      ],
      "payable": false,
      "stateMutability": "view",
      "type": "function"
    },
    {
      "anonymous": false,
      "inputs": [
        {
          "indexed": false,
          "name": "playerId",
          "type": "address"
        },
        {
          "indexed": false,
          "name": "_amount",
          "type": "uint256"
        }
      ],
      "name": "SummonEvent",
      "type": "event"
    },
    {
      "constant": false,
      "inputs": [],
      "name": "summonOne",
      "outputs": [],
      "payable": false,
      "stateMutability": "nonpayable",
      "type": "function"
    },
    {
      "constant": false,
      "inputs": [],
      "name": "summonTen",
      "outputs": [],
      "payable": false,
      "stateMutability": "nonpayable",
      "type": "function"
    },
    {
      "constant": false,
      "inputs": [
        {
          "name": "playerAddress",
          "type": "address"
        },
        {
          "name": "results",
          "type": "uint256[]"
        },
        {
          "name": "cardType",
          "type": "uint256[]"
        }
      ],
      "name": "_summonCallback",
      "outputs": [],
      "payable": false,
      "stateMutability": "nonpayable",
      "type": "function"
    }
  ],
  "bytecode": "0x6080604052336000806101000a81548173ffffffffffffffffffffffffffffffffffffffff021916908373ffffffffffffffffffffffffffffffffffffffff16021790555060008060146101000a81548160ff0219169083151502179055506108468061006d6000396000f300608060405260043610610099576000357c0100000000000000000000000000000000000000000000000000000000900463ffffffff1680630ee2cb101461009e5780632d5b9522146100f55780633ff992c81461010c578063a96b38731461017f578063bedb86fb14610196578063c978e5ee146101c5578063cb526370146101cf578063d9cd12cf1461021c578063e2eb41ff14610273575b600080fd5b3480156100aa57600080fd5b506100b36102ca565b604051808273ffffffffffffffffffffffffffffffffffffffff1673ffffffffffffffffffffffffffffffffffffffff16815260200191505060405180910390f35b34801561010157600080fd5b5061010a6102f3565b005b34801561011857600080fd5b5061017d600480360381019080803573ffffffffffffffffffffffffffffffffffffffff1690602001909291908035906020019082018035906020019190919293919293908035906020019082018035906020019190919293919293905050506102ff565b005b34801561018b57600080fd5b506101946104b8565b005b3480156101a257600080fd5b506101c36004803603810190808035151590602001909291905050506104c4565b005b6101cd61053c565b005b3480156101db57600080fd5b5061021a600480360381019080803573ffffffffffffffffffffffffffffffffffffffff169060200190929190803590602001909291905050506105a5565b005b34801561022857600080fd5b5061025d600480360381019080803573ffffffffffffffffffffffffffffffffffffffff169060200190929190505050610670565b6040518082815260200191505060405180910390f35b34801561027f57600080fd5b506102b4600480360381019080803573ffffffffffffffffffffffffffffffffffffffff1690602001909291905050506106bc565b6040518082815260200191505060405180910390f35b60008060009054906101000a900473ffffffffffffffffffffffffffffffffffffffff16905090565b6102fd60016106da565b565b60008060009054906101000a900473ffffffffffffffffffffffffffffffffffffffff1673ffffffffffffffffffffffffffffffffffffffff163373ffffffffffffffffffffffffffffffffffffffff1614151561035c57600080fd5b828290508585905014151561037057600080fd5b600090505b848490508110156104b0576000838383818110151561039057fe5b90506020020135141561042257600160008773ffffffffffffffffffffffffffffffffffffffff1673ffffffffffffffffffffffffffffffffffffffff16815260200190815260200160002060010185858381811015156103ed57fe5b9050602002013590806001815401808255809150509060018203906000526020600020016000909192909190915055506104a3565b600160008773ffffffffffffffffffffffffffffffffffffffff1673ffffffffffffffffffffffffffffffffffffffff168152602001908152602001600020600201858583818110151561047257fe5b9050602002013590806001815401808255809150509060018203906000526020600020016000909192909190915055505b8080600101915050610375565b505050505050565b6104c2600a6106da565b565b6000809054906101000a900473ffffffffffffffffffffffffffffffffffffffff1673ffffffffffffffffffffffffffffffffffffffff163373ffffffffffffffffffffffffffffffffffffffff1614151561051f57600080fd5b80600060146101000a81548160ff02191690831515021790555050565b670de0b6b3a76400003414151561055257600080fd5b60a7600160003373ffffffffffffffffffffffffffffffffffffffff1673ffffffffffffffffffffffffffffffffffffffff16815260200190815260200160002060000160008282540192505081905550565b6000809054906101000a900473ffffffffffffffffffffffffffffffffffffffff1673ffffffffffffffffffffffffffffffffffffffff163373ffffffffffffffffffffffffffffffffffffffff1614151561060057600080fd5b600060149054906101000a900460ff1615151561061c57600080fd5b80600160008473ffffffffffffffffffffffffffffffffffffffff1673ffffffffffffffffffffffffffffffffffffffff168152602001908152602001600020600001600082825401925050819055505050565b6000600160008373ffffffffffffffffffffffffffffffffffffffff1673ffffffffffffffffffffffffffffffffffffffff168152602001908152602001600020600001549050919050565b60016020528060005260406000206000915090508060000154905081565b600060149054906101000a900460ff161515156106f657600080fd5b60008111151561070557600080fd5b60038102600160003373ffffffffffffffffffffffffffffffffffffffff1673ffffffffffffffffffffffffffffffffffffffff168152602001908152602001600020600001541015151561075957600080fd5b60038102600160003373ffffffffffffffffffffffffffffffffffffffff1673ffffffffffffffffffffffffffffffffffffffff168152602001908152602001600020600001600082825403925050819055507f9d32c2789a2ee7134fbdb813dff9097b46f8c8e52ab7393aac86065d7dd49aa53382604051808373ffffffffffffffffffffffffffffffffffffffff1673ffffffffffffffffffffffffffffffffffffffff1681526020018281526020019250505060405180910390a1505600a165627a7a72305820e4380284b40c09a46d962effe73bb5f17eb8b83be29cab8181f1e1cde76f280b0029",
  "source": "pragma solidity ^0.4.23;\n\n\nimport \"./FateSmartContractDataStructure.sol\";\n\n\ncontract FateSmartContractSummon is FateSmartContractDataStructure {\n\n    event SummonEvent(address playerId, uint256 _amount);\n\n    function summonOne() public {\n        summon(1);\n    }\n\n    function summonTen() public {\n        summon(10);\n    }\n\n    function _summonCallback(address playerAddress, uint256[] results, uint256[] cardType) external onlyCreator {\n        require(results.length == cardType.length);\n\n        for (uint256 i = 0; i < results.length; i++) {\n            if (cardType[i] == 0) {\n                players[playerAddress].servant.push(results[i]);\n            } else {\n                players[playerAddress].craftEssence.push(results[i]);\n            }\n        }\n\n        // event (hash ?)\n    }\n\n    function summon(uint256 amount) internal notPause {\n        require(amount > 0);\n        require(players[msg.sender].tokenQuartzAmount >= amount * 3);\n        players[msg.sender].tokenQuartzAmount -= amount * 3;\n\n\n        emit SummonEvent(msg.sender, amount);\n        // + hash ?\n    }\n}\n",
  "sourcePath": "E:\\Projects\\FateSmartContract\\FateSmartContract\\contracts\\FateSmartContractSummon.sol",
  "compiler": {
    "name": "solc",
    "version": "0.4.24+commit.e67f0147.Emscripten.clang"
  },
  "schemaVersion": "2.0.0",
  "updatedAt": "2018-06-18T13:55:06.010Z"
}