{
  "contractName": "FateSmartContractSummon",
  "abi": [
    {
      "constant": true,
      "inputs": [],
      "name": "getCreator",
      "outputs": [
        {
          "name": "",
          "type": "address"
        }
      ],
      "payable": false,
      "stateMutability": "view",
      "type": "function"
    },
    {
      "constant": false,
      "inputs": [
        {
          "name": "_amountInWei",
          "type": "uint256"
        }
      ],
      "name": "sendEthToCreator",
      "outputs": [],
      "payable": false,
      "stateMutability": "nonpayable",
      "type": "function"
    },
    {
      "constant": true,
      "inputs": [
        {
          "name": "playerAddress",
          "type": "address"
        }
      ],
      "name": "getServant",
      "outputs": [
        {
          "name": "",
          "type": "uint256[]"
        }
      ],
      "payable": false,
      "stateMutability": "view",
      "type": "function"
    },
    {
      "constant": true,
      "inputs": [],
      "name": "getTokenQuartzBuyAmount",
      "outputs": [
        {
          "name": "",
          "type": "uint256"
        }
      ],
      "payable": false,
      "stateMutability": "view",
      "type": "function"
    },
    {
      "constant": false,
      "inputs": [
        {
          "name": "_price",
          "type": "uint256"
        }
      ],
      "name": "setTokenQuartzPriceInWei",
      "outputs": [],
      "payable": false,
      "stateMutability": "nonpayable",
      "type": "function"
    },
    {
      "constant": true,
      "inputs": [],
      "name": "getTokenQuartzPriceInWei",
      "outputs": [
        {
          "name": "",
          "type": "uint256"
        }
      ],
      "payable": false,
      "stateMutability": "view",
      "type": "function"
    },
    {
      "constant": true,
      "inputs": [
        {
          "name": "playerAddress",
          "type": "address"
        }
      ],
      "name": "getCraftEssence",
      "outputs": [
        {
          "name": "",
          "type": "uint256[]"
        }
      ],
      "payable": false,
      "stateMutability": "view",
      "type": "function"
    },
    {
      "constant": false,
      "inputs": [
        {
          "name": "_pause",
          "type": "bool"
        }
      ],
      "name": "setPause",
      "outputs": [],
      "payable": false,
      "stateMutability": "nonpayable",
      "type": "function"
    },
    {
      "constant": false,
      "inputs": [],
      "name": "buyTokenQuartz",
      "outputs": [],
      "payable": true,
      "stateMutability": "payable",
      "type": "function"
    },
    {
      "constant": false,
      "inputs": [
        {
          "name": "playerAddress",
          "type": "address"
        },
        {
          "name": "amount",
          "type": "uint256"
        }
      ],
      "name": "addTokenQuartzAmount",
      "outputs": [],
      "payable": false,
      "stateMutability": "nonpayable",
      "type": "function"
    },
    {
      "constant": true,
      "inputs": [
        {
          "name": "playerAddress",
          "type": "address"
        }
      ],
      "name": "getTokenQuartzAmount",
      "outputs": [
        {
          "name": "",
          "type": "uint256"
        }
      ],
      "payable": false,
      "stateMutability": "view",
      "type": "function"
    },
    {
      "constant": false,
      "inputs": [
        {
          "name": "_amount",
          "type": "uint256"
        }
      ],
      "name": "setTokenQuartzBuyAmount",
      "outputs": [],
      "payable": false,
      "stateMutability": "nonpayable",
      "type": "function"
    },
    {
      "constant": true,
      "inputs": [
        {
          "name": "",
          "type": "address"
        }
      ],
      "name": "players",
      "outputs": [
        {
          "name": "tokenQuartzAmount",
          "type": "uint256"
        }
      ],
      "payable": false,
      "stateMutability": "view",
      "type": "function"
    },
    {
      "constant": true,
      "inputs": [
        {
          "name": "",
          "type": "uint256"
        }
      ],
      "name": "responses",
      "outputs": [
        {
          "name": "",
          "type": "uint256"
        }
      ],
      "payable": false,
      "stateMutability": "view",
      "type": "function"
    },
    {
      "anonymous": false,
      "inputs": [
        {
          "indexed": true,
          "name": "hash",
          "type": "uint256"
        },
        {
          "indexed": true,
          "name": "playerAddress",
          "type": "address"
        },
        {
          "indexed": false,
          "name": "amount",
          "type": "uint256"
        }
      ],
      "name": "SummonEvent",
      "type": "event"
    },
    {
      "anonymous": false,
      "inputs": [
        {
          "indexed": true,
          "name": "hash",
          "type": "uint256"
        },
        {
          "indexed": true,
          "name": "playerAddress",
          "type": "address"
        },
        {
          "indexed": false,
          "name": "results",
          "type": "uint256[]"
        },
        {
          "indexed": false,
          "name": "cardType",
          "type": "uint256[]"
        }
      ],
      "name": "SummonedEvent",
      "type": "event"
    },
    {
      "anonymous": false,
      "inputs": [
        {
          "indexed": true,
          "name": "playerAddress",
          "type": "address"
        },
        {
          "indexed": false,
          "name": "amount",
          "type": "uint256"
        }
      ],
      "name": "BuyTokenQuartz",
      "type": "event"
    },
    {
      "constant": false,
      "inputs": [],
      "name": "summonOne",
      "outputs": [],
      "payable": false,
      "stateMutability": "nonpayable",
      "type": "function"
    },
    {
      "constant": false,
      "inputs": [],
      "name": "summonTen",
      "outputs": [],
      "payable": false,
      "stateMutability": "nonpayable",
      "type": "function"
    },
    {
      "constant": false,
      "inputs": [
        {
          "name": "hash",
          "type": "uint256"
        },
        {
          "name": "playerAddress",
          "type": "address"
        },
        {
          "name": "results",
          "type": "uint256[]"
        },
        {
          "name": "cardType",
          "type": "uint256[]"
        }
      ],
      "name": "summonCallback",
      "outputs": [],
      "payable": false,
      "stateMutability": "nonpayable",
      "type": "function"
    }
  ],
  "bytecode": "0x6080604052336000806101000a81548173ffffffffffffffffffffffffffffffffffffffff021916908373ffffffffffffffffffffffffffffffffffffffff16021790555060008060146101000a81548160ff02191690831515021790555067013fbe85edc9000060018190555060a7600281905550611036806100846000396000f3006080604052600436106100f1576000357c0100000000000000000000000000000000000000000000000000000000900463ffffffff1680630ee2cb10146100f65780632c6d2d6b1461014d5780632d5b95221461017a5780633e788385146101915780633ef5ce0f1461022957806358ba44311461025457806368ada3ad146102815780637350eda7146102fe578063a96b387314610329578063ac6082e314610340578063bedb86fb146103d8578063c978e5ee14610407578063cb52637014610411578063d9cd12cf1461045e578063de8aa663146104b5578063e2eb41ff146104e2578063ed35d7e514610539575b600080fd5b34801561010257600080fd5b5061010b61057a565b604051808273ffffffffffffffffffffffffffffffffffffffff1673ffffffffffffffffffffffffffffffffffffffff16815260200191505060405180910390f35b34801561015957600080fd5b50610178600480360381019080803590602001909291905050506105a3565b005b34801561018657600080fd5b5061018f610669565b005b34801561019d57600080fd5b506101d2600480360381019080803573ffffffffffffffffffffffffffffffffffffffff169060200190929190505050610676565b6040518080602001828103825283818151815260200191508051906020019060200280838360005b838110156102155780820151818401526020810190506101fa565b505050509050019250505060405180910390f35b34801561023557600080fd5b5061023e610710565b6040518082815260200191505060405180910390f35b34801561026057600080fd5b5061027f6004803603810190808035906020019092919050505061071a565b005b34801561028d57600080fd5b506102fc60048036038101908080359060200190929190803573ffffffffffffffffffffffffffffffffffffffff16906020019092919080359060200190820180359060200191909192939192939080359060200190820180359060200191909192939192939050505061077f565b005b34801561030a57600080fd5b50610313610a05565b6040518082815260200191505060405180910390f35b34801561033557600080fd5b5061033e610a0f565b005b34801561034c57600080fd5b50610381600480360381019080803573ffffffffffffffffffffffffffffffffffffffff169060200190929190505050610a1c565b6040518080602001828103825283818151815260200191508051906020019060200280838360005b838110156103c45780820151818401526020810190506103a9565b505050509050019250505060405180910390f35b3480156103e457600080fd5b50610405600480360381019080803515159060200190929190505050610ab6565b005b61040f610b2e565b005b34801561041d57600080fd5b5061045c600480360381019080803573ffffffffffffffffffffffffffffffffffffffff16906020019092919080359060200190929190505050610c37565b005b34801561046a57600080fd5b5061049f600480360381019080803573ffffffffffffffffffffffffffffffffffffffff169060200190929190505050610d02565b6040518082815260200191505060405180910390f35b3480156104c157600080fd5b506104e060048036038101908080359060200190929190505050610d4e565b005b3480156104ee57600080fd5b50610523600480360381019080803573ffffffffffffffffffffffffffffffffffffffff169060200190929190505050610db3565b6040518082815260200191505060405180910390f35b34801561054557600080fd5b5061056460048036038101908080359060200190929190505050610dd1565b6040518082815260200191505060405180910390f35b60008060009054906101000a900473ffffffffffffffffffffffffffffffffffffffff16905090565b6000809054906101000a900473ffffffffffffffffffffffffffffffffffffffff1673ffffffffffffffffffffffffffffffffffffffff163373ffffffffffffffffffffffffffffffffffffffff161415156105fe57600080fd5b6000809054906101000a900473ffffffffffffffffffffffffffffffffffffffff1673ffffffffffffffffffffffffffffffffffffffff166108fc829081150290604051600060405180830381858888f19350505050158015610665573d6000803e3d6000fd5b5050565b6106736001610de9565b50565b6060600360008373ffffffffffffffffffffffffffffffffffffffff1673ffffffffffffffffffffffffffffffffffffffff16815260200190815260200160002060010180548060200260200160405190810160405280929190818152602001828054801561070457602002820191906000526020600020905b8154815260200190600101908083116106f0575b50505050509050919050565b6000600254905090565b6000809054906101000a900473ffffffffffffffffffffffffffffffffffffffff1673ffffffffffffffffffffffffffffffffffffffff163373ffffffffffffffffffffffffffffffffffffffff1614151561077557600080fd5b8060018190555050565b60008060009054906101000a900473ffffffffffffffffffffffffffffffffffffffff1673ffffffffffffffffffffffffffffffffffffffff163373ffffffffffffffffffffffffffffffffffffffff161415156107dc57600080fd5b600160046000898152602001908152602001600020541415156107fe57600080fd5b828290508585905014151561081257600080fd5b600090505b84849050811015610952576000838383818110151561083257fe5b9050602002013514156108c457600360008773ffffffffffffffffffffffffffffffffffffffff1673ffffffffffffffffffffffffffffffffffffffff168152602001908152602001600020600101858583818110151561088f57fe5b905060200201359080600181540180825580915050906001820390600052602060002001600090919290919091505550610945565b600360008773ffffffffffffffffffffffffffffffffffffffff1673ffffffffffffffffffffffffffffffffffffffff168152602001908152602001600020600201858583818110151561091457fe5b9050602002013590806001815401808255809150509060018203906000526020600020016000909192909190915055505b8080600101915050610817565b600260046000898152602001908152602001600020819055508573ffffffffffffffffffffffffffffffffffffffff16877f6dd4e4ca5e96d3294dc4017e090ac0fb9d4e5ccdd3601f0e135331217cabe20a878787876040518080602001806020018381038352878782818152602001925060200280828437820191505083810382528585828181526020019250602002808284378201915050965050505050505060405180910390a350505050505050565b6000600154905090565b610a19600a610de9565b50565b6060600360008373ffffffffffffffffffffffffffffffffffffffff1673ffffffffffffffffffffffffffffffffffffffff168152602001908152602001600020600201805480602002602001604051908101604052809291908181526020018280548015610aaa57602002820191906000526020600020905b815481526020019060010190808311610a96575b50505050509050919050565b6000809054906101000a900473ffffffffffffffffffffffffffffffffffffffff1673ffffffffffffffffffffffffffffffffffffffff163373ffffffffffffffffffffffffffffffffffffffff16141515610b1157600080fd5b80600060146101000a81548160ff02191690831515021790555050565b60015434141515610b3e57600080fd5b6000600254600360003373ffffffffffffffffffffffffffffffffffffffff1673ffffffffffffffffffffffffffffffffffffffff1681526020019081526020016000206000015401111515610b9357600080fd5b600254600360003373ffffffffffffffffffffffffffffffffffffffff1673ffffffffffffffffffffffffffffffffffffffff168152602001908152602001600020600001600082825401925050819055503373ffffffffffffffffffffffffffffffffffffffff167f720aecb4faadeee42e3bc66881f8289e230ed1d2108d60c584fe3b0faebf59d46002546040518082815260200191505060405180910390a2565b6000809054906101000a900473ffffffffffffffffffffffffffffffffffffffff1673ffffffffffffffffffffffffffffffffffffffff163373ffffffffffffffffffffffffffffffffffffffff16141515610c9257600080fd5b600060149054906101000a900460ff16151515610cae57600080fd5b80600360008473ffffffffffffffffffffffffffffffffffffffff1673ffffffffffffffffffffffffffffffffffffffff168152602001908152602001600020600001600082825401925050819055505050565b6000600360008373ffffffffffffffffffffffffffffffffffffffff1673ffffffffffffffffffffffffffffffffffffffff168152602001908152602001600020600001549050919050565b6000809054906101000a900473ffffffffffffffffffffffffffffffffffffffff1673ffffffffffffffffffffffffffffffffffffffff163373ffffffffffffffffffffffffffffffffffffffff16141515610da957600080fd5b8060028190555050565b60036020528060005260406000206000915090508060000154905081565b60046020528060005260406000206000915090505481565b600080600060149054906101000a900460ff16151515610e0857600080fd5b600083111515610e1757600080fd5b60038302600360003373ffffffffffffffffffffffffffffffffffffffff1673ffffffffffffffffffffffffffffffffffffffff1681526020019081526020016000206000015410151515610e6b57600080fd5b60038302600360003373ffffffffffffffffffffffffffffffffffffffff1673ffffffffffffffffffffffffffffffffffffffff1681526020019081526020016000206000016000828254039250508190555043428433604051602001808581526020018481526020018381526020018273ffffffffffffffffffffffffffffffffffffffff1673ffffffffffffffffffffffffffffffffffffffff166c010000000000000000000000000281526014019450505050506040516020818303038152906040526040518082805190602001908083835b602083101515610f665780518252602082019150602081019050602083039250610f41565b6001836020036101000a0380198251168184511680821785525050505050509050019150506040518091039020600190049050600160046000838152602001908152602001600020819055503373ffffffffffffffffffffffffffffffffffffffff16817fe1e7b480ddc482162f36bfb388bd5b5053d5aac8bf39f8e8a9bb3c83268d8094856040518082815260200191505060405180910390a3809150509190505600a165627a7a723058206728b88b0bc4b2998503cb36b4acf126a8b0ab80b44493eeea81405851672d160029",
  "source": "pragma solidity ^0.4.23;\n\n\nimport \"./FateSmartContractDataStructure.sol\";\n\n\ncontract FateSmartContractSummon is FateSmartContractDataStructure {\n\n    mapping(uint256 => uint256) public responses;\n\n    event SummonEvent(uint256 indexed hash, address indexed playerAddress, uint256 amount);\n    event SummonedEvent(uint256 indexed hash, address indexed playerAddress, uint256[] results, uint256[] cardType);\n\n    function summonOne() public {\n        summon(1);\n    }\n\n    function summonTen() public {\n        summon(10);\n    }\n\n    function summon(uint256 amount) internal notPause returns (uint256) {\n        require(amount > 0);\n        require(players[msg.sender].tokenQuartzAmount >= amount * 3);\n        players[msg.sender].tokenQuartzAmount -= amount * 3;\n\n        uint256 hash = uint256(keccak256(abi.encodePacked(block.number, now, amount, msg.sender)));\n\n        responses[hash] = 1;\n        emit SummonEvent(hash, msg.sender, amount);\n\n        return hash;\n    }\n\n    function summonCallback(uint256 hash, address playerAddress, uint256[] results, uint256[] cardType) external onlyCreator {\n        require(responses[hash] == 1);\n        require(results.length == cardType.length);\n\n        for (uint256 i = 0; i < results.length; i++) {\n            if (cardType[i] == 0) {\n                players[playerAddress].servant.push(results[i]);\n            } else {\n                players[playerAddress].craftEssence.push(results[i]);\n            }\n        }\n\n        responses[hash] = 2;\n        emit SummonedEvent(hash, playerAddress, results, cardType);\n    }\n}\n",
  "sourcePath": "E:\\Projects\\FateSmartContract\\FateSmartContract\\contracts\\FateSmartContractSummon.sol",
  "compiler": {
    "name": "solc",
    "version": "0.4.24+commit.e67f0147.Emscripten.clang"
  },
  "schemaVersion": "2.0.1",
  "updatedAt": "2018-07-01T15:16:10.621Z"
}