{
  "contractName": "FateSmartContractAccessControl",
  "abi": [
    {
      "inputs": [],
      "payable": false,
      "stateMutability": "nonpayable",
      "type": "constructor"
    },
    {
      "constant": true,
      "inputs": [],
      "name": "getCreator",
      "outputs": [
        {
          "name": "",
          "type": "address"
        }
      ],
      "payable": false,
      "stateMutability": "view",
      "type": "function"
    },
    {
      "constant": true,
      "inputs": [],
      "name": "getPause",
      "outputs": [
        {
          "name": "",
          "type": "bool"
        }
      ],
      "payable": false,
      "stateMutability": "view",
      "type": "function"
    },
    {
      "constant": false,
      "inputs": [
        {
          "name": "_pause",
          "type": "bool"
        }
      ],
      "name": "setPause",
      "outputs": [],
      "payable": false,
      "stateMutability": "nonpayable",
      "type": "function"
    },
    {
      "constant": false,
      "inputs": [
        {
          "name": "_amountInWei",
          "type": "uint256"
        }
      ],
      "name": "sendEthToCreator",
      "outputs": [],
      "payable": false,
      "stateMutability": "nonpayable",
      "type": "function"
    },
    {
      "constant": false,
      "inputs": [
        {
          "name": "_address",
          "type": "address"
        },
        {
          "name": "value",
          "type": "bool"
        }
      ],
      "name": "setDealer",
      "outputs": [],
      "payable": false,
      "stateMutability": "nonpayable",
      "type": "function"
    }
  ],
  "bytecode": "0x608060405234801561001057600080fd5b50336000806101000a81548173ffffffffffffffffffffffffffffffffffffffff021916908373ffffffffffffffffffffffffffffffffffffffff16021790555060008060146101000a81548160ff0219169083151502179055506104028061007a6000396000f30060806040526004361061006d576000357c0100000000000000000000000000000000000000000000000000000000900463ffffffff1680630ee2cb10146100725780632c6d2d6b146100c95780633e3ca9d3146100f6578063bedb86fb14610125578063e69e892114610154575b600080fd5b34801561007e57600080fd5b506100876101a3565b604051808273ffffffffffffffffffffffffffffffffffffffff1673ffffffffffffffffffffffffffffffffffffffff16815260200191505060405180910390f35b3480156100d557600080fd5b506100f4600480360381019080803590602001909291905050506101cc565b005b34801561010257600080fd5b5061010b610292565b604051808215151515815260200191505060405180910390f35b34801561013157600080fd5b506101526004803603810190808035151590602001909291905050506102a8565b005b34801561016057600080fd5b506101a1600480360381019080803573ffffffffffffffffffffffffffffffffffffffff169060200190929190803515159060200190929190505050610320565b005b60008060009054906101000a900473ffffffffffffffffffffffffffffffffffffffff16905090565b6000809054906101000a900473ffffffffffffffffffffffffffffffffffffffff1673ffffffffffffffffffffffffffffffffffffffff163373ffffffffffffffffffffffffffffffffffffffff1614151561022757600080fd5b6000809054906101000a900473ffffffffffffffffffffffffffffffffffffffff1673ffffffffffffffffffffffffffffffffffffffff166108fc829081150290604051600060405180830381858888f1935050505015801561028e573d6000803e3d6000fd5b5050565b60008060149054906101000a900460ff16905090565b6000809054906101000a900473ffffffffffffffffffffffffffffffffffffffff1673ffffffffffffffffffffffffffffffffffffffff163373ffffffffffffffffffffffffffffffffffffffff1614151561030357600080fd5b80600060146101000a81548160ff02191690831515021790555050565b6000809054906101000a900473ffffffffffffffffffffffffffffffffffffffff1673ffffffffffffffffffffffffffffffffffffffff163373ffffffffffffffffffffffffffffffffffffffff1614151561037b57600080fd5b80600160008473ffffffffffffffffffffffffffffffffffffffff1673ffffffffffffffffffffffffffffffffffffffff16815260200190815260200160002060006101000a81548160ff02191690831515021790555050505600a165627a7a72305820914f7c1d644ed8da5e29444f2d7df89be445521cf3241f02d747ccd14cbd9c330029",
  "source": "pragma solidity ^0.4.23;\n\n\ncontract FateSmartContractAccessControl {\n\n    address private creator;\n\n    bool private pause;\n\n    modifier onlyCreator() {\n        require(msg.sender == creator);\n        _;\n    }\n\n    modifier notPause() {\n        require(!pause);\n        _;\n    }\n\n    constructor() public {\n        creator = msg.sender;\n        pause = false;\n    }\n\n    function getCreator() public view returns (address) {\n        return creator;\n    }\n\n    function getPause() public view returns (bool) {\n        return pause;\n    }\n\n    function setPause(bool _pause) public onlyCreator {\n        pause = _pause;\n    }\n\n    function sendEthToCreator(uint256 _amountInWei) public onlyCreator {\n        creator.transfer(_amountInWei);\n    }\n\n    mapping(address => bool) private dealers;\n\n    modifier onlyDealer() {\n        require(dealers[msg.sender]);\n        _;\n    }\n\n    function setDealer(address _address, bool value) public onlyCreator {\n        dealers[_address] = value;\n    }\n}\n",
  "sourcePath": "E:\\Projects\\FateSmartContract\\FateSmartContract\\contracts\\FateSmartContractAccessControl.sol",
  "compiler": {
    "name": "solc",
    "version": "0.4.24+commit.e67f0147.Emscripten.clang"
  },
  "schemaVersion": "2.0.1",
  "updatedAt": "2018-07-05T17:49:43.164Z"
}