{
  "contractName": "FateSmartContractSummon",
  "abi": [
    {
      "constant": false,
      "inputs": [
        {
          "name": "_pause",
          "type": "bool"
        }
      ],
      "name": "setPause",
      "outputs": [],
      "payable": false,
      "stateMutability": "nonpayable",
      "type": "function"
    },
    {
      "constant": false,
      "inputs": [],
      "name": "buyTokenQuartz",
      "outputs": [],
      "payable": true,
      "stateMutability": "payable",
      "type": "function"
    },
    {
      "constant": false,
      "inputs": [
        {
          "name": "playerAddress",
          "type": "address"
        },
        {
          "name": "amount",
          "type": "uint256"
        }
      ],
      "name": "addTokenQuartzAmount",
      "outputs": [],
      "payable": false,
      "stateMutability": "nonpayable",
      "type": "function"
    },
    {
      "constant": true,
      "inputs": [
        {
          "name": "",
          "type": "address"
        }
      ],
      "name": "players",
      "outputs": [
        {
          "name": "tokenQuartzAmount",
          "type": "uint256"
        }
      ],
      "payable": false,
      "stateMutability": "view",
      "type": "function"
    },
    {
      "anonymous": false,
      "inputs": [
        {
          "indexed": false,
          "name": "playerId",
          "type": "address"
        },
        {
          "indexed": false,
          "name": "_amount",
          "type": "uint256"
        }
      ],
      "name": "SummonEvent",
      "type": "event"
    },
    {
      "constant": false,
      "inputs": [],
      "name": "summonOne",
      "outputs": [],
      "payable": false,
      "stateMutability": "nonpayable",
      "type": "function"
    },
    {
      "constant": false,
      "inputs": [],
      "name": "summonTen",
      "outputs": [],
      "payable": false,
      "stateMutability": "nonpayable",
      "type": "function"
    },
    {
      "constant": false,
      "inputs": [
        {
          "name": "playerAddress",
          "type": "address"
        },
        {
          "name": "results",
          "type": "uint256[]"
        },
        {
          "name": "cardType",
          "type": "uint256[]"
        }
      ],
      "name": "_summonCallback",
      "outputs": [],
      "payable": false,
      "stateMutability": "nonpayable",
      "type": "function"
    }
  ],
  "bytecode": "0x6080604052336000806101000a81548173ffffffffffffffffffffffffffffffffffffffff021916908373ffffffffffffffffffffffffffffffffffffffff16021790555060008060146101000a81548160ff02191690831515021790555061070d8061006d6000396000f300608060405260043610610083576000357c0100000000000000000000000000000000000000000000000000000000900463ffffffff1680632d5b9522146100885780633ff992c81461009f578063a96b387314610112578063bedb86fb14610129578063c978e5ee14610158578063cb52637014610162578063e2eb41ff146101af575b600080fd5b34801561009457600080fd5b5061009d610206565b005b3480156100ab57600080fd5b50610110600480360381019080803573ffffffffffffffffffffffffffffffffffffffff169060200190929190803590602001908201803590602001919091929391929390803590602001908201803590602001919091929391929390505050610212565b005b34801561011e57600080fd5b506101276103cb565b005b34801561013557600080fd5b506101566004803603810190808035151590602001909291905050506103d7565b005b61016061044f565b005b34801561016e57600080fd5b506101ad600480360381019080803573ffffffffffffffffffffffffffffffffffffffff169060200190929190803590602001909291905050506104b8565b005b3480156101bb57600080fd5b506101f0600480360381019080803573ffffffffffffffffffffffffffffffffffffffff169060200190929190505050610583565b6040518082815260200191505060405180910390f35b61021060016105a1565b565b60008060009054906101000a900473ffffffffffffffffffffffffffffffffffffffff1673ffffffffffffffffffffffffffffffffffffffff163373ffffffffffffffffffffffffffffffffffffffff1614151561026f57600080fd5b828290508585905014151561028357600080fd5b600090505b848490508110156103c357600083838381811015156102a357fe5b90506020020135141561033557600160008773ffffffffffffffffffffffffffffffffffffffff1673ffffffffffffffffffffffffffffffffffffffff168152602001908152602001600020600101858583818110151561030057fe5b9050602002013590806001815401808255809150509060018203906000526020600020016000909192909190915055506103b6565b600160008773ffffffffffffffffffffffffffffffffffffffff1673ffffffffffffffffffffffffffffffffffffffff168152602001908152602001600020600201858583818110151561038557fe5b9050602002013590806001815401808255809150509060018203906000526020600020016000909192909190915055505b8080600101915050610288565b505050505050565b6103d5600a6105a1565b565b6000809054906101000a900473ffffffffffffffffffffffffffffffffffffffff1673ffffffffffffffffffffffffffffffffffffffff163373ffffffffffffffffffffffffffffffffffffffff1614151561043257600080fd5b80600060146101000a81548160ff02191690831515021790555050565b670de0b6b3a76400003414151561046557600080fd5b60a7600160003373ffffffffffffffffffffffffffffffffffffffff1673ffffffffffffffffffffffffffffffffffffffff16815260200190815260200160002060000160008282540192505081905550565b6000809054906101000a900473ffffffffffffffffffffffffffffffffffffffff1673ffffffffffffffffffffffffffffffffffffffff163373ffffffffffffffffffffffffffffffffffffffff1614151561051357600080fd5b600060149054906101000a900460ff1615151561052f57600080fd5b80600160008473ffffffffffffffffffffffffffffffffffffffff1673ffffffffffffffffffffffffffffffffffffffff168152602001908152602001600020600001600082825401925050819055505050565b60016020528060005260406000206000915090508060000154905081565b600060149054906101000a900460ff161515156105bd57600080fd5b6000811115156105cc57600080fd5b60038102600160003373ffffffffffffffffffffffffffffffffffffffff1673ffffffffffffffffffffffffffffffffffffffff168152602001908152602001600020600001541015151561062057600080fd5b60038102600160003373ffffffffffffffffffffffffffffffffffffffff1673ffffffffffffffffffffffffffffffffffffffff168152602001908152602001600020600001600082825403925050819055507f9d32c2789a2ee7134fbdb813dff9097b46f8c8e52ab7393aac86065d7dd49aa53382604051808373ffffffffffffffffffffffffffffffffffffffff1673ffffffffffffffffffffffffffffffffffffffff1681526020018281526020019250505060405180910390a1505600a165627a7a72305820f5103ffc3e38ccc38f03f449046e89e9fd80b75dd3747907a971f2029087e5d60029",
  "source": "pragma solidity ^0.4.23;\n\n\nimport \"./FateSmartContractDataStructure.sol\";\n\n\ncontract FateSmartContractSummon is FateSmartContractDataStructure {\n\n    event SummonEvent(address playerId, uint256 _amount);\n\n    function summonOne() public {\n        summon(1);\n    }\n\n    function summonTen() public {\n        summon(10);\n    }\n\n    function _summonCallback(address playerAddress, uint256[] results, uint256[] cardType) external onlyCreator {\n        require(results.length == cardType.length);\n\n        for (uint256 i = 0; i < results.length; i++) {\n            if (cardType[i] == 0) {\n                players[playerAddress].servant.push(results[i]);\n            } else {\n                players[playerAddress].craftEssence.push(results[i]);\n            }\n        }\n\n        // event (hash ?)\n    }\n\n    function summon(uint256 amount) internal notPause {\n        require(amount > 0);\n        require(players[msg.sender].tokenQuartzAmount >= amount * 3);\n        players[msg.sender].tokenQuartzAmount -= amount * 3;\n\n\n        emit SummonEvent(msg.sender, amount);\n        // + hash ?\n    }\n}\n",
  "sourcePath": "E:\\Projects\\FateSmartContract\\FateSmartContract\\contracts\\FateSmartContractSummon.sol",
  "compiler": {
    "name": "solc",
    "version": "0.4.24+commit.e67f0147.Emscripten.clang"
  },
  "schemaVersion": "2.0.0",
  "updatedAt": "2018-06-18T09:25:22.682Z"
}