{
  "contractName": "FateSmartContractSummon",
  "abi": [
    {
      "constant": true,
      "inputs": [],
      "name": "getCreator",
      "outputs": [
        {
          "name": "",
          "type": "address"
        }
      ],
      "payable": false,
      "stateMutability": "view",
      "type": "function"
    },
    {
      "constant": false,
      "inputs": [
        {
          "name": "_pause",
          "type": "bool"
        }
      ],
      "name": "setPause",
      "outputs": [],
      "payable": false,
      "stateMutability": "nonpayable",
      "type": "function"
    },
    {
      "constant": false,
      "inputs": [],
      "name": "buyTokenQuartz",
      "outputs": [],
      "payable": true,
      "stateMutability": "payable",
      "type": "function"
    },
    {
      "constant": false,
      "inputs": [
        {
          "name": "playerAddress",
          "type": "address"
        },
        {
          "name": "amount",
          "type": "uint256"
        }
      ],
      "name": "addTokenQuartzAmount",
      "outputs": [],
      "payable": false,
      "stateMutability": "nonpayable",
      "type": "function"
    },
    {
      "constant": true,
      "inputs": [
        {
          "name": "playerAddress",
          "type": "address"
        }
      ],
      "name": "getTokenQuartzAmount",
      "outputs": [
        {
          "name": "",
          "type": "uint256"
        }
      ],
      "payable": false,
      "stateMutability": "view",
      "type": "function"
    },
    {
      "constant": true,
      "inputs": [
        {
          "name": "",
          "type": "address"
        }
      ],
      "name": "players",
      "outputs": [
        {
          "name": "tokenQuartzAmount",
          "type": "uint256"
        }
      ],
      "payable": false,
      "stateMutability": "view",
      "type": "function"
    },
    {
      "constant": true,
      "inputs": [
        {
          "name": "",
          "type": "uint256"
        }
      ],
      "name": "responses",
      "outputs": [
        {
          "name": "",
          "type": "uint256"
        }
      ],
      "payable": false,
      "stateMutability": "view",
      "type": "function"
    },
    {
      "anonymous": false,
      "inputs": [
        {
          "indexed": false,
          "name": "hash",
          "type": "uint256"
        },
        {
          "indexed": false,
          "name": "playerId",
          "type": "address"
        },
        {
          "indexed": false,
          "name": "amount",
          "type": "uint256"
        }
      ],
      "name": "SummonEvent",
      "type": "event"
    },
    {
      "anonymous": false,
      "inputs": [
        {
          "indexed": false,
          "name": "hash",
          "type": "uint256"
        },
        {
          "indexed": false,
          "name": "playerAddress",
          "type": "address"
        },
        {
          "indexed": false,
          "name": "results",
          "type": "uint256[]"
        },
        {
          "indexed": false,
          "name": "cardType",
          "type": "uint256[]"
        }
      ],
      "name": "SummonedEvent",
      "type": "event"
    },
    {
      "constant": false,
      "inputs": [],
      "name": "summonOne",
      "outputs": [],
      "payable": false,
      "stateMutability": "nonpayable",
      "type": "function"
    },
    {
      "constant": false,
      "inputs": [],
      "name": "summonTen",
      "outputs": [],
      "payable": false,
      "stateMutability": "nonpayable",
      "type": "function"
    },
    {
      "constant": false,
      "inputs": [
        {
          "name": "hash",
          "type": "uint256"
        },
        {
          "name": "playerAddress",
          "type": "address"
        },
        {
          "name": "results",
          "type": "uint256[]"
        },
        {
          "name": "cardType",
          "type": "uint256[]"
        }
      ],
      "name": "summonCallback",
      "outputs": [],
      "payable": false,
      "stateMutability": "nonpayable",
      "type": "function"
    }
  ],
  "bytecode": "0x6080604052336000806101000a81548173ffffffffffffffffffffffffffffffffffffffff021916908373ffffffffffffffffffffffffffffffffffffffff16021790555060008060146101000a81548160ff021916908315150217905550610aab8061006d6000396000f3006080604052600436106100a4576000357c0100000000000000000000000000000000000000000000000000000000900463ffffffff1680630ee2cb10146100a95780632d5b95221461010057806368ada3ad14610117578063a96b387314610194578063bedb86fb146101ab578063c978e5ee146101da578063cb526370146101e4578063d9cd12cf14610231578063e2eb41ff14610288578063ed35d7e5146102df575b600080fd5b3480156100b557600080fd5b506100be610320565b604051808273ffffffffffffffffffffffffffffffffffffffff1673ffffffffffffffffffffffffffffffffffffffff16815260200191505060405180910390f35b34801561010c57600080fd5b50610115610349565b005b34801561012357600080fd5b5061019260048036038101908080359060200190929190803573ffffffffffffffffffffffffffffffffffffffff169060200190929190803590602001908201803590602001919091929391929390803590602001908201803590602001919091929391929390505050610356565b005b3480156101a057600080fd5b506101a96105ff565b005b3480156101b757600080fd5b506101d860048036038101908080351515906020019092919050505061060c565b005b6101e2610684565b005b3480156101f057600080fd5b5061022f600480360381019080803573ffffffffffffffffffffffffffffffffffffffff169060200190929190803590602001909291905050506106ed565b005b34801561023d57600080fd5b50610272600480360381019080803573ffffffffffffffffffffffffffffffffffffffff1690602001909291905050506107b8565b6040518082815260200191505060405180910390f35b34801561029457600080fd5b506102c9600480360381019080803573ffffffffffffffffffffffffffffffffffffffff169060200190929190505050610804565b6040518082815260200191505060405180910390f35b3480156102eb57600080fd5b5061030a60048036038101908080359060200190929190505050610822565b6040518082815260200191505060405180910390f35b60008060009054906101000a900473ffffffffffffffffffffffffffffffffffffffff16905090565b610353600161083a565b50565b60008060009054906101000a900473ffffffffffffffffffffffffffffffffffffffff1673ffffffffffffffffffffffffffffffffffffffff163373ffffffffffffffffffffffffffffffffffffffff161415156103b357600080fd5b600160026000898152602001908152602001600020541415156103d557600080fd5b82829050858590501415156103e957600080fd5b600090505b84849050811015610529576000838383818110151561040957fe5b90506020020135141561049b57600160008773ffffffffffffffffffffffffffffffffffffffff1673ffffffffffffffffffffffffffffffffffffffff168152602001908152602001600020600101858583818110151561046657fe5b90506020020135908060018154018082558091505090600182039060005260206000200160009091929091909150555061051c565b600160008773ffffffffffffffffffffffffffffffffffffffff1673ffffffffffffffffffffffffffffffffffffffff16815260200190815260200160002060020185858381811015156104eb57fe5b9050602002013590806001815401808255809150509060018203906000526020600020016000909192909190915055505b80806001019150506103ee565b6002806000898152602001908152602001600020819055507f6dd4e4ca5e96d3294dc4017e090ac0fb9d4e5ccdd3601f0e135331217cabe20a878787878787604051808781526020018673ffffffffffffffffffffffffffffffffffffffff1673ffffffffffffffffffffffffffffffffffffffff168152602001806020018060200183810383528787828181526020019250602002808284378201915050838103825285858281815260200192506020028082843782019150509850505050505050505060405180910390a150505050505050565b610609600a61083a565b50565b6000809054906101000a900473ffffffffffffffffffffffffffffffffffffffff1673ffffffffffffffffffffffffffffffffffffffff163373ffffffffffffffffffffffffffffffffffffffff1614151561066757600080fd5b80600060146101000a81548160ff02191690831515021790555050565b670de0b6b3a76400003414151561069a57600080fd5b60a7600160003373ffffffffffffffffffffffffffffffffffffffff1673ffffffffffffffffffffffffffffffffffffffff16815260200190815260200160002060000160008282540192505081905550565b6000809054906101000a900473ffffffffffffffffffffffffffffffffffffffff1673ffffffffffffffffffffffffffffffffffffffff163373ffffffffffffffffffffffffffffffffffffffff1614151561074857600080fd5b600060149054906101000a900460ff1615151561076457600080fd5b80600160008473ffffffffffffffffffffffffffffffffffffffff1673ffffffffffffffffffffffffffffffffffffffff168152602001908152602001600020600001600082825401925050819055505050565b6000600160008373ffffffffffffffffffffffffffffffffffffffff1673ffffffffffffffffffffffffffffffffffffffff168152602001908152602001600020600001549050919050565b60016020528060005260406000206000915090508060000154905081565b60026020528060005260406000206000915090505481565b600080600060149054906101000a900460ff1615151561085957600080fd5b60008311151561086857600080fd5b60038302600160003373ffffffffffffffffffffffffffffffffffffffff1673ffffffffffffffffffffffffffffffffffffffff16815260200190815260200160002060000154101515156108bc57600080fd5b60038302600160003373ffffffffffffffffffffffffffffffffffffffff1673ffffffffffffffffffffffffffffffffffffffff1681526020019081526020016000206000016000828254039250508190555043428433604051602001808581526020018481526020018381526020018273ffffffffffffffffffffffffffffffffffffffff1673ffffffffffffffffffffffffffffffffffffffff166c010000000000000000000000000281526014019450505050506040516020818303038152906040526040518082805190602001908083835b6020831015156109b75780518252602082019150602081019050602083039250610992565b6001836020036101000a0380198251168184511680821785525050505050509050019150506040518091039020600190049050600160026000838152602001908152602001600020819055507fe1e7b480ddc482162f36bfb388bd5b5053d5aac8bf39f8e8a9bb3c83268d8094813385604051808481526020018373ffffffffffffffffffffffffffffffffffffffff1673ffffffffffffffffffffffffffffffffffffffff168152602001828152602001935050505060405180910390a1809150509190505600a165627a7a72305820ca72f26d2286ef027b326ce1fb22631e23d4174e8c66473222e1ff44da571ecd0029",
  "source": "pragma solidity ^0.4.23;\n\n\nimport \"./FateSmartContractDataStructure.sol\";\n\n\ncontract FateSmartContractSummon is FateSmartContractDataStructure {\n\n    mapping (uint256 => uint256) public responses;\n\n    event SummonEvent(uint256 hash, address playerId, uint256 amount);\n    event SummonedEvent(uint256 hash, address playerAddress, uint256[] results, uint256[] cardType);\n\n    function summonOne() public {\n        summon(1);\n    }\n\n    function summonTen() public {\n        summon(10);\n    }\n\n    function summon(uint256 amount) internal notPause returns (uint256) {\n        require(amount > 0);\n        require(players[msg.sender].tokenQuartzAmount >= amount * 3);\n        players[msg.sender].tokenQuartzAmount -= amount * 3;\n\n        uint256 hash = uint256(keccak256(abi.encodePacked(block.number, now, amount, msg.sender)));\n\n        responses[hash] = 1;\n        emit SummonEvent(hash, msg.sender, amount);\n\n        return hash;\n    }\n\n    function summonCallback(uint256 hash, address playerAddress, uint256[] results, uint256[] cardType) external onlyCreator {\n        require(responses[hash] == 1);\n        require(results.length == cardType.length);\n\n        for (uint256 i = 0; i < results.length; i++) {\n            if (cardType[i] == 0) {\n                players[playerAddress].servant.push(results[i]);\n            } else {\n                players[playerAddress].craftEssence.push(results[i]);\n            }\n        }\n\n        responses[hash] = 2;\n        emit SummonedEvent(hash, playerAddress, results, cardType);\n    }\n}\n",
  "sourcePath": "E:\\Projects\\FateSmartContract\\FateSmartContract\\contracts\\FateSmartContractSummon.sol",
  "compiler": {
    "name": "solc",
    "version": "0.4.24+commit.e67f0147.Emscripten.clang"
  },
  "schemaVersion": "2.0.0",
  "updatedAt": "2018-06-26T12:18:42.866Z"
}